{
  "contractName": "PaymentProcessor",
  "abi": [
    {
      "inputs": [
        {
          "internalType": "address",
          "name": "adminAddress",
          "type": "address"
        },
        {
          "internalType": "address",
          "name": "usdcAddress",
          "type": "address"
        }
      ],
      "stateMutability": "nonpayable",
      "type": "constructor"
    },
    {
      "anonymous": false,
      "inputs": [
        {
          "indexed": false,
          "internalType": "address",
          "name": "payer",
          "type": "address"
        },
        {
          "indexed": false,
          "internalType": "uint256",
          "name": "amount",
          "type": "uint256"
        },
        {
          "indexed": false,
          "internalType": "string",
          "name": "paymentId",
          "type": "string"
        },
        {
          "indexed": false,
          "internalType": "uint256",
          "name": "date",
          "type": "uint256"
        }
      ],
      "name": "PaymentDone",
      "type": "event"
    },
    {
      "inputs": [],
      "name": "admin",
      "outputs": [
        {
          "internalType": "address",
          "name": "",
          "type": "address"
        }
      ],
      "stateMutability": "view",
      "type": "function",
      "constant": true
    },
    {
      "inputs": [],
      "name": "usdc",
      "outputs": [
        {
          "internalType": "contract IERC20",
          "name": "",
          "type": "address"
        }
      ],
      "stateMutability": "view",
      "type": "function",
      "constant": true
    },
    {
      "inputs": [
        {
          "internalType": "uint256",
          "name": "amount",
          "type": "uint256"
        },
        {
          "internalType": "string",
          "name": "paymentId",
          "type": "string"
        }
      ],
      "name": "pay",
      "outputs": [],
      "stateMutability": "nonpayable",
      "type": "function"
    }
  ],
  "bytecode": "0x608060405234801561001057600080fd5b5060405161066c38038061066c833981810160405281019061003291906100cf565b816000806101000a81548173ffffffffffffffffffffffffffffffffffffffff021916908373ffffffffffffffffffffffffffffffffffffffff16021790555080600160006101000a81548173ffffffffffffffffffffffffffffffffffffffff021916908373ffffffffffffffffffffffffffffffffffffffff1602179055505050610154565b6000815190506100c98161013d565b92915050565b600080604083850312156100e257600080fd5b60006100f0858286016100ba565b9250506020610101858286016100ba565b9150509250929050565b60006101168261011d565b9050919050565b600073ffffffffffffffffffffffffffffffffffffffff82169050919050565b6101468161010b565b811461015157600080fd5b50565b610509806101636000396000f3fe608060405234801561001057600080fd5b50600436106100415760003560e01c8063154fbbc4146100465780633e413bee14610062578063f851a44014610080575b600080fd5b610060600480360381019061005b919061029b565b61009e565b005b61006a6101b4565b60405161007791906103ed565b60405180910390f35b6100886101da565b604051610095919061034d565b60405180910390f35b600160009054906101000a900473ffffffffffffffffffffffffffffffffffffffff1673ffffffffffffffffffffffffffffffffffffffff166323b872dd3360008054906101000a900473ffffffffffffffffffffffffffffffffffffffff16866040518463ffffffff1660e01b815260040161011d93929190610368565b602060405180830381600087803b15801561013757600080fd5b505af115801561014b573d6000803e3d6000fd5b505050506040513d601f19601f8201168201806040525081019061016f9190610272565b507f5deda500cf2f51e0ae5ba5537859f938dadea1f0d406c57f7a1ad89ea5f2434833848484426040516101a795949392919061039f565b60405180910390a1505050565b600160009054906101000a900473ffffffffffffffffffffffffffffffffffffffff1681565b60008054906101000a900473ffffffffffffffffffffffffffffffffffffffff1681565b60008151905061020d816104a5565b92915050565b60008083601f84011261022557600080fd5b8235905067ffffffffffffffff81111561023e57600080fd5b60208301915083600182028301111561025657600080fd5b9250929050565b60008135905061026c816104bc565b92915050565b60006020828403121561028457600080fd5b6000610292848285016101fe565b91505092915050565b6000806000604084860312156102b057600080fd5b60006102be8682870161025d565b935050602084013567ffffffffffffffff8111156102db57600080fd5b6102e786828701610213565b92509250509250925092565b6102fc81610419565b82525050565b61030b81610461565b82525050565b600061031d8385610408565b935061032a838584610485565b61033383610494565b840190509392505050565b61034781610457565b82525050565b600060208201905061036260008301846102f3565b92915050565b600060608201905061037d60008301866102f3565b61038a60208301856102f3565b610397604083018461033e565b949350505050565b60006080820190506103b460008301886102f3565b6103c1602083018761033e565b81810360408301526103d4818587610311565b90506103e3606083018461033e565b9695505050505050565b60006020820190506104026000830184610302565b92915050565b600082825260208201905092915050565b600061042482610437565b9050919050565b60008115159050919050565b600073ffffffffffffffffffffffffffffffffffffffff82169050919050565b6000819050919050565b600061046c82610473565b9050919050565b600061047e82610437565b9050919050565b82818337600083830152505050565b6000601f19601f8301169050919050565b6104ae8161042b565b81146104b957600080fd5b50565b6104c581610457565b81146104d057600080fd5b5056fea2646970667358221220bc5238d0af2e2f9b65b996a5d96c25d235104f96ee59ef1937c7968abf56d38864736f6c63430008000033",
  "immutableReferences": {},
  "source": "pragma solidity ^0.8.0;\n\nimport '@openzeppelin/contracts/token/ERC20/IERC20.sol';\n\ncontract PaymentProcessor {\n  address public admin;\n  IERC20 public usdc;\n\n  event PaymentDone(\n    address payer,\n    uint amount,\n    string paymentId,\n    uint date\n  );\n\n  constructor(address adminAddress, address usdcAddress) public {\n    admin = adminAddress;\n    usdc = IERC20(usdcAddress);   \n  }\n\n  function pay(uint amount, string calldata paymentId) external {\n    usdc.transferFrom(msg.sender, admin, amount);\n    emit PaymentDone(msg.sender, amount, paymentId, block.timestamp);\n  }\n}\n",
  "sourcePath": "/Users/anguschen/venusGo/src/github.com/Bubble-Zoo/bubblezoo-core/contracts/PaymentProcessor.sol",
  "compiler": {
    "name": "solc",
    "version": "0.8.0+commit.c7dfd78e.Emscripten.clang"
  },
  "schemaVersion": "3.4.2",
  "updatedAt": "2021-08-18T04:47:06.389Z",
  "networkType": "ethereum",
  "devdoc": {
    "kind": "dev",
    "methods": {},
    "version": 1
  },
  "userdoc": {
    "kind": "user",
    "methods": {},
    "version": 1
  }
}